:020000040800F2
:1000000088040020C1010008031800085F0C0008E4
:1000100001180008AB020008D5220008000000000B
:100020000000000000000000000000008520000823
:10003000D709000800000000A91A0008592100088B
:10004000DB010008DB010008DB010008DB01000820
:10005000DB010008DB010008DB010008DB01000810
:10006000DB010008DB010008DB010008DB01000800
:10007000DB010008DB010008DB010008DB010008F0
:10008000DB010008DB010008DB010008DB010008E0
:10009000DB010008DB010008DB010008DB010008D0
:1000A000DB010008DB010008DB010008DB010008C0
:1000B000DB010008DB010008DB010008DB010008B0
:1000C000DB010008DB010008DB010008DB010008A0
:1000D000DB010008DB010008DB010008DB01000890
:1000E000DB010008DB010008DB010008DB01000880
:1000F000DB010008DB010008DB010008DB01000870
:10010000DB010008DB010008DB010008DB0100085F
:10011000DB010008DB010008DB010008DB0100084F
:10012000DB010008C1060008DB010008DB01000854
:10013000DB010008DB010008DB010008DB0100082F
:10014000DB010008DB010008DB010008DB0100081F
:10015000DB010008DB010008DB010008DB0100080F
:10016000DB010008DB010008DB010008DB010008FF
:10017000DB010008DB01000845050008DB01000881
:10018000DB010008DB010008DB010008DB010008DF
:10019000DB010008DB010008DB010008DB010008CF
:1001A000DB010008DB010008DB010008DFF80CD0F0
:1001B00000F04AF800480047D127000888040020D2
:1001C0000648804706480047FEE7FEE7FEE7FEE7F1
:1001D000FEE7FEE7FEE7FEE7FEE7FEE75D2100083B
:1001E000AD0100082DE9F05F0546002092469B46D0
:1001F00088460646814640241BE02846414647463D
:10020000224600F042F853465A46C01A914110D394
:1002100011461846224600F029F82D1A67EB01080E
:100220004F4622460120002100F020F817EB00097C
:100230004E41201EA4F10104DFDC484631462A4627
:100240004346BDE8F09F0000064C074D06E0E0681D
:1002500040F0010394E8070098471034AC42F6D30D
:10026000FFF7A8FFE04A0008004B0008202A04DB43
:10027000203A00FA02F1002070479140C2F12003B9
:1002800020FA03F3194390407047202A04DB203AF8
:1002900021FA02F00021704721FA02F3D040C2F1A6
:1002A00020029140084319467047FEE7054900289F
:1002B000086802D040F0010001E020F00100086071
:1002C0007047000000000550014948617047000078
:1002D00000000550014948617047000000000550CA
:1002E00005490028086802D040F4804001E020F46D
:1002F00080400860704700000000055070B505465A
:10030000012190B0880501F0D1FB254E304600F068
:1003100045FA4FF00070009022480190224802A94F
:10032000002481E831003115CDE9054189000791AC
:1003300089000891891109914FF440310A910421F3
:100340000B910321CDE90C1400EB8501002230460E
:100350000E9400F0BFFA0121304600F0B1FA694670
:10036000304600F009FB4FF4E06001F07DFA3920DF
:100370008DF83C008DF83D408DF83E4001208DF811
:100380003F000FA801F03EFA0849304600F0E6F9B8
:1003900001221021304600F0D9FA10B070BD0000E3
:1003A000286402402800055000A60ED000880010E6
:1003B0002DE9F04F87B0012140F21F1001F076FBCC
:1003C0000121084601F07EFBDFF850B10D22062125
:1003D000584600F02BFC0D220421584600F026FC64
:1003E000DFF83C910D220721484600F01FFCDFF8A2
:1003F00034A10D220621504600F018FC0D220721E1
:10040000504600F013FC0D220821504600F00EFC6F
:100410000D220921504600F009FC0D220B21504607
:1004200000F004FC404F0D220321384600F0FEFB93
:10043000DFF8F8800D220721404600F0F7FB0D227F
:100440000621404600F0F2FB02258DF804500320FF
:100450008DF805000024C0208DF80640012600908C
:100460008DF807606946404600F08FFB4FF43C6012
:1004700000906946504600F088FB082000906946CD
:10048000384600F082FB102000906946584600F084
:100490007CFB802000906946484600F076FB4020B7
:1004A00000908DF804508DF807506946584600F0CA
:1004B0006CFB2020ADF80C00ADF80840ADF8104002
:1004C000ADF80A40ADF80E40ADF81240ADF814405A
:1004D00002A800F075F8002000F090F84FF4E060FA
:1004E00001F0C2F94E208DF818008DF819408DF8F2
:1004F0001A608DF81B6006A801F084F9012108201C
:1005000000F050F80121102000F04CF801210846BD
:1005100000F048F807B0BDE8F08F0000000002408E
:100520000004024000080240000C0240002002408B
:100530000349024600200969114200D0012070479A
:100540000000055070B50120FFF7F2FF002540B113
:100550000120FFF7BFFE0F480F4905700888401CB7
:1005600008801020FFF7E4FF0C4C28B11020FFF7A3
:10057000ABFE2088401C20800820FFF7D9FF002810
:1005800006D00820FFF7A0FE0549208808802580B6
:1005900070BD00003600002028000020340000203C
:1005A00026000020054A0029D16801D0014302E05D
:1005B000C04380B20140D160704700000000055088
:1005C00030B50D4A116844F2010399431160136874
:1005D00040F6F2718B4301884488C58821438488A2
:1005E0002C432143048921434489808921430143C9
:1005F0001943116030BD0000000005500549002876
:10060000086802D040F0080001E020F0080008600F
:10061000704700000000055038B504460121FF2056
:1006200000F03CF869461C2000F020F8B8B99DF8AD
:100630000000207069461D2000F018F878B99DF878
:100640000000607069460A2000F010F838B99DF883
:100650000000A07069460B2000F008F808B1FF20E8
:1006600038BD9DF80000E070002038BD73B50A4C1D
:100670000D46612301226946204600F02DFD40B160
:10068000612301222946204600F028FC08B1002001
:100690007CBDFF207CBD00000058004008B56023F1
:1006A0008DF800008DF8011002226946034800F021
:1006B00013FD08B1002008BDFF2008BD0058004010
:1006C00070B51F4E304600F010F978B100251D4C72
:1006D0003046214600F010F901282FD1214630463E
:1006E00000F03CF8184C207818B107E04FF40025D2
:1006F000EDE72A461549304600F068F920780128D0
:1007000004D12A461249304600F060F920780228C8
:1007100004D12A460F49304600F058F920780328C2
:1007200004D12A460C49304600F050F92078401C8C
:10073000C0B22070032801D90020207070BD0000D5
:10074000286402400088001036000020005613D0B4
:1007500000AE15D000A60ED000FE10D0074A904281
:1007600001D2074801E005481038064A8B0001EA2B
:10077000020101D5C160704781607047106402407A
:10078000006002407D0F7D0F0029016802D041F01A
:10079000010101E021F00101016070472DE9F04302
:1007A000016821F001010160002101604160816068
:1007B000C1600161212141613C493C4A3D2510391C
:1007C000904202D18D60BDE8F083384A4FF47466E0
:1007D0001832904201D18E60F5E7344A4FF4741715
:1007E0003032904201D18F60EDE7304A4FF0746CA7
:1007F0004832904202D1C1F808C0E4E72B4B2C4AA2
:100800006033984201D1CA60DDE7284C294B783427
:10081000A04201D1CB60D6E7DFF89080264C08F1EA
:100820009008404501D1CC60CDE7DFF880804FF0E3
:100830003D5908F1A808404502D1C1F80C90C2E723
:100840001E49DFF878800839404501D10D60BAE7CC
:100850001A4D1835A84201D10E60B4E7174D303556
:10086000A84201D10F60AEE7144D4835A84202D12D
:10087000C1F800C0A7E7114D10496035091FA84213
:1008800001D10A609FE70D4A7832904201D10B6096
:1008900099E70A4A9032904201D10C6093E7074AE7
:1008A000A83290428FD1C1F800908CE710600240CE
:1008B0003D000020400F002000003D201064024059
:1008C0000029016802D041F4802101E021F4802157
:1008D00001607047002A026802D042F4002201E061
:1008E00022F400220260016170470146002009687D
:1008F000090300D50120704730B5104A002490420A
:1009000001D20F4B01E00D4B103B0E4A114205D0B6
:100910001E2202EAD12502682A4002E0406900F066
:100920008002880001D5586800E01868064B18401E
:10093000084201D002B10124204630BD10640240BB
:10094000006002403C0F3C0F7D0F7D0F0B0607D56A
:10095000436912B143F0800301E023F08003436157
:10096000802908D0002A026801F01E0101D00A4344
:1009700000E08A430260704730B50368124ACC68D1
:1009800013400A682243D1E905452C432243CC6930
:1009900022430C6A22434C6A22438C6A22434C6BEA
:1009A00022438C6B22431A430260426922F0070300
:1009B000D1E90B2422431A4342610A6942604A6822
:1009C00082608968C16030BD3F801CF00AB101615E
:1009D0007047C1607047704701B503480099C16016
:1009E000C1680029FCD108BD2400002040F2E63394
:1009F00002E01946491EFDD2401EFAD2704700237C
:100A00004FF0204210280AD0B0F5807F09D0B0F511
:100A1000805F09D0D2F85801814309D107E0506EB8
:100A2000FAE7D2F88400F7E7D2F8A400F4E701234C
:100A300018467047D0E90012114382686FF01F0317
:100A4000C06803EB421242EA402001434FF02040CD
:100A5000C0F8501170470000F0B50668B100A1F170
:100A6000C041D1F84011056ACA0BD0E901131943FE
:100A7000D0E90334234319434369446A1943836922
:100A8000D2031943C36919432943214311434FF04A
:100A90002042E6B3D2F840612B436FF30E06344395
:100AA0002343C2F8403103689B00A3F1C043C3F85D
:100AB000401100BF6FF00F052E012B0301681C01D0
:100AC00031B38900A1F1C041D1F84811876A01F022
:100AD000704CD7E9001E05EB0E15491E2943BD6871
:100AE00006EB052529433D8A03EB05431943D2F85C
:100AF000483141EA0C0103F07045FB68BE8A1B03D4
:100B000004EB0654A3F5805323432B4301E009E093
:100B10000BE0C2F8483100688000A0F1C040C0F886
:100B20004811F0BDC2F84011C4E7D2F8481101F0F5
:100B30007047816AD1E9000C05EB0C15401E284373
:100B40008D6806EB052528430A4ECD6806EB053572
:100B500028430D8A03EB054318438B8A097E04EB77
:100B600003531843330303EB016108433843C2F8CE
:100B70004801F0BD00F0FFFF4FF02041D1F85421B3
:100B800042EA4000C1F854017047F0B50023012447
:100B900003270D6804FA03F21540954242D1D0F8BC
:100BA00000C05E0007FA06F52CEA050CC0F800C08C
:100BB00091F804C0D0F800E00CFA06FC4CEA0E0CE8
:100BC000C0F800C091F804C0BCF1010F02D0BCF124
:100BD000020F1FD1D0F808C02CEA050CC0F808C0DD
:100BE00091F805C0D0F808E00CFA06FC4CEA0E0CAF
:100BF000C0F808C0D0F804C02CEA020CC0F804C049
:100C0000426891F806C00CFA03FC1FFA8CFC42EA19
:100C10000C024260C268AA43C260CA79C568B24089
:100C20002A43C2605B1C102BB3D3F0BD4B07DB0E15
:100C30009A40C90810B500EB8100016A0F249C405E
:100C4000A1430162016A1143016210BD4FF6FF71B9
:100C500001600021017141718171C1717047FEE72E
:100C60000029018802D041F4806101E021F4806113
:100C70000180704702460020938A128B43EA0243A8
:100C800023F07F42914300D1012070470029018861
:100C900002D041F0010101E021F001010180704723
:100CA0000D4910B5884202D101214C050AE00B49DB
:100CB000884202D101218C0504E0094988420AD109
:100CC0000121CC05204600F021FF2046BDE8104060
:100CD000002100F01BBF10BD005400400058004030
:100CE000005C00400029018802D041F4807101E0DD
:100CF00021F48071018070470029018802D041F4FD
:100D0000007101E021F40071018070470CB50246CA
:100D1000002000920A0F21F07F41019202D0009A38
:100D2000143202E0009A090C1832009212680A424A
:100D300000D001200CBD00007FB5044680880D4620
:100D400020F03F06684600F0FFFE27490298B0FBFE
:100D5000F1F189B20E43A680228822F0010222809E
:100D6000224B2A689A421BD85200B0FBF2F080B2A4
:100D7000042800D20420491C2184A083208840F04C
:100D80000100208021884FF6F5300140A8886A894B
:100D9000104308432080A8892989084320817FBD0A
:100DA000EB88A3F53F46FF3E0BD002EBC20303EBFB
:100DB0000212B0FBF2F080B240F48040020506D08F
:100DC00007E002EB4202B0FBF2F080B2F6E740F03F
:100DD00001004FF4967251434FF47A72B1FBF2F175
:100DE00040F40040C7E7000040420F00A086010029
:100DF000F0B587B007466846FFF728FF354801245D
:100E00000225354E8742214628461BD100F04EFE72
:100E10000121480500F06EFE8DF80550C0208DF8C8
:100E2000045000908DF806408DF807406946304622
:100E3000FFF7ABFE042206213046FFF7F7FE04223F
:100E400007211BE000F032FE0121880500F052FE70
:100E50008DF805504FF440608DF8045000908DF8E7
:100E600006408DF8074069463046FFF78EFE0422A3
:100E70000A213046FFF7DAFE04220B213046FFF745
:100E8000D5FE3846FFF70CFF02A800F016F9002047
:100E9000ADF80C004BF6FF70ADF80E000F20ADF86A
:100EA00010004FF48060ADF812000001ADF814009E
:100EB00042F21070029002A93846FFF73DFF01216F
:100EC0003846FFF7E3FE01213846FFF7C9FE07B0B9
:100ED000F0BD000000540040000402402DE9F8433A
:100EE00007464FF00000994616000C46009005D0CA
:100EF00042F210754FF40038009506E00120BDE87D
:100F0000F8830098411E00917ED341463846FFF792
:100F1000FDFE0028F5D101213846FFF7A1FE012191
:100F20003846FFF7DFFEDFF86C81009503E000989C
:100F3000411E009168D341463846FFF79BFE0028CA
:100F4000F5D001224946384600F0ADF8DFF8488177
:100F5000009503E00098411E009155D34146384664
:100F6000FFF7D4FE0028F5D0012E07D0DFF8288146
:100F7000388B08F10208022E18D040E000213846D4
:100F8000FFF76EFE388B01213846FFF7B5FE424E63
:100F900000953E3603E00098411E009178D331461B
:100FA0003846FFF7B3FE0028F5D059E00021384657
:100FB000FFF756FE4646009503E00098411E00915B
:100FC00066D331463846FFF7A1FE0028F5D001214F
:100FD0003846FFF791FE388A2070388A607043E007
:100FE0000098411E009153D341463846FFF78EFECC
:100FF0000028F5D0384600F053F804F8010B761EAF
:10100000022E0095F0D100E042E0464603E0009851
:10101000411E00913CD331463846FFF777FE002849
:10102000F5D000213846FFF71BFE384600F038F8AF
:10103000207001213846FFF75FFE384600F030F897
:10104000144E60703F36A41C009503E00098411ECA
:1010500000911DD331463846FFF70CFE0028F5D02D
:10106000384600F01DF820700B4C00950E3403E05C
:101070000098411E00910BD321463846FFF746FEEB
:101080000028F5D10548018841F48061018035E7E9
:10109000002034E701000300020000101458004053
:1010A000008AC0B2704712B141F0010101E001F0C5
:1010B000FE01018270470182704741F28831016070
:1010C000002181804BF6FF72C280018141814FF483
:1010D00080418181704700002DE9F84381464FF03F
:1010E0000000984616000D46009068D042F2107439
:1010F0004FF40037009403E00098411E009161D343
:1011000039464846FFF702FE0028F5D1012148463E
:10111000FFF7E8FD2C4F009403E00098411E00917A
:1011200050D339464846FFF7A5FD0028F5D00022E8
:1011300041464846FFF7B7FF244F009403E000986C
:10114000411E00913ED339464846FFF793FD0028E3
:10115000F5D015F8011B4846FFF7ADFF1C4F0EE018
:101160000098411E00912DD339464846FFF7CEFD29
:101170000028F5D015F8011B4846FFF79CFF761EA6
:101180000094F1D103E00098411E00911AD3394632
:101190004846FFF7BBFD0028F5D001214846FFF780
:1011A000ABFD00940A4C0C3403E00098411E009102
:1011B00008D321464846FFF7A9FD0028F5D10120B4
:1011C000BDE8F8830020FBE7010003008200070070
:1011D000040000101CB5012140F2EF1000F066FC85
:1011E00002208DF805008DF8040000208DF806001F
:1011F000614C8DF807000E2208212046FFF716FDEE
:101200000E2209212046FFF711FD4FF44070009097
:1012100069462046FFF7B9FC584C0E2206212046AD
:10122000FFF704FD4020009069462046FFF7ADFC23
:10123000534C0E2205212046FFF7F8FC0E22062112
:101240002046FFF7F3FC0E2204212046FFF7EEFCB8
:101250007020009069462046FFF797FC494C0E220B
:101260000A212046FFF7E2FC20150090694620463F
:10127000FFF78BFC444C0E2206212046FFF7D6FCDC
:101280000E2207212046FFF7D1FC0E220B2120461B
:10129000FFF7CCFC0E220C212046FFF7C7FC4FF4D1
:1012A000C650009069462046FFF76FFC374C0E226F
:1012B00002212046FFF7BAFC0E2203212046FFF749
:1012C000B5FC0E2208212046FFF7B0FC0E220921B2
:1012D0002046FFF7ABFC0E220A212046FFF7A6FCB2
:1012E0000E220B212046FFF7A1FC0E220C212046E6
:1012F000FFF79CFC0E220D212046FFF797FC0E22E3
:1013000011462046FFF792FC0E220F212046FFF7E0
:101310008DFC4FF60C70009069462046FFF735FCB7
:101320001B4C0E2200212046FFF780FC0E220121DB
:101330002046FFF77BFC0E2202212046FFF776FCB9
:101340000E2204212046FFF771FC0E2205212046C3
:10135000FFF76CFC0E2209212046FFF767FC0E22E6
:101360000A212046FFF762FC40F237600090694690
:101370002046FFF70AFC1CBD00040240000C02409E
:10138000001002400014024000180240001C0240FD
:1013900000200240044A054B0021526822F8110047
:1013A000491C9942FAD370476000002000A60E0045
:1013B000064B10B4DB68203AD2B21C68DB8853437A
:1013C00004EB430210BC00F025B8000060000020D0
:1013D0002DE9F0410E46804600240D4D4FF448772C
:1013E0000AE021464046FFF7E3FFE868761C808864
:1013F000204484B2BC4208D23278002A05D0E86882
:101400008088011989B28142EBD2BDE8F0810000E9
:10141000600000202DE9F047924600234FF4C86297
:1014200050431E4A1788B2F802905668D4682FE0DD
:10143000002225E04FF00C0CB5FBFCFC4FEACC0C75
:101440004FF0800808FA0CF83AF813C048FA02F88E
:1014500018EA0C0F01D10C2D08D94FF0010808FA39
:1014600002F81CEA080F06D10C2D04D906EB410C3A
:101470002CF8009002E006EB41052F52491C521C4B
:10148000A5889542D6D8AAB2C2F5487211445B1C11
:10149000E2889A42CCD8BDE8F087000060000020C6
:1014A0000148C068704700006000002000B50121BD
:1014B0008FB0880600F036FB0121C80500F0F6FA6F
:1014C000FFF788FE00F0F6FC0020029003900090E9
:1014D00001900C900D900E9004220721C02000F086
:1014E000A7FB002000F094FB012000F09BFB3D20B7
:1014F00000F074FB0028FAD0092004900120059028
:101500001D2006900320079040F23D30089040F2E5
:10151000E310099040F20F400A9040F219200B901E
:10152000684600F09BF80FB000BD00002DE9F047C1
:1015300090B01E2040F23D34042540F2E3198DE8BE
:10154000310202200490FF200590002009A9069096
:1015500007904FF4C0660727089081E8C10040F269
:1015600043600D90C01E4FF4F078CDE90E082007BF
:10157000DFF860A00C906946504600F0CDF81648A0
:101580000C90BE208DE8310240F203500D90C01E39
:10159000CDE90E080F4C694680342046CDE90A6734
:1015A00000F0BAF8012000F003F90121504600F0E4
:1015B000A9F80121204600F0A5F8012000F0F8F874
:1015C0000648A0F11001C860012000F039F810B001
:1015D000BDE8F0878468014000A60ED070000020AE
:1015E0000149488070470000600000200149C86040
:1015F0007047000060000020054920B105484860A0
:101600000120886070474FF0504048600020F8E7A4
:101610006000002000A60ED001490880704700003D
:101620006000002005490028086802D040F0010051
:1016300001E020F0010008607047000018680140D8
:1016400005490028086802D040F4803001E020F409
:1016500080300860704700001868014030B52649A6
:101660000B68264A13400B60038A1C040B6845690B
:101670002B4323430B60091D0B6813400B60038B46
:101680000C68C5692C4344EA03440C60091D0B68CF
:1016900013400B60038C0C68456A2C4344EA0344F6
:1016A0000C60091D0B6813400B60028D13040A685F
:1016B000C46A22431A430A60091D0A68104B1A4083
:1016C0000A60D0E900231A43D0E9023423431A43C5
:1016D0000B681A430A60416B0B02018E0A0406492B
:1016E00024310C6804F07F440C600C68806B1A4352
:1016F000044314430C6030BD0868014000F800F05A
:101700008F88FE0F0029016802D041F0010101E03D
:1017100021F001010160704770B58A88436803F4C5
:10172000704343600B6843EA024343608A898368DD
:1017300003F4704383608B6843EA02438360026969
:1017400022F0070202610A690261CA6991F8243035
:1017500016020A8C84691204002585618C6942EAAC
:101760000362344314438461426922F0FF02426100
:101770004A694261C26940F207739A43C261D1E982
:101780000A231A43C261826A85620A6B82620A8FE7
:10179000C36A03F0E023C3624B6B43EA0243C362B4
:1017A000026B6FF30A020263C96B016370BD000034
:1017B0000149086070470000246801401CB5012001
:1017C00000F0BCF90121084600F070F90B4C002232
:1017D00008212046FFF72AFA0221A0158DF80510EE
:1017E00000908DF8041000208DF8060001208DF87F
:1017F000070069462046FFF7C8F91CBD00000240FB
:10180000FEE7704730B50F22C47801780123FCB1A0
:10181000144C246801F1E02104F4E064C4F5E064B0
:10182000C4F30724C4F10405E2404478AC40857851
:10183000154025432A0181F80024007800F01F019B
:101840008B404009800000F1E020C0F8003130BD3D
:1018500001F01F0083404809800000F1E020C0F83B
:10186000803130BD0CED00E00249084302490860B8
:10187000704700000000FA050CED00E0052804D2D6
:10188000DFE800F00305080B0E0007480AE00648F1
:101890000F3007E004481E3004E003482D3001E01B
:1018A00001483C3000F0F8B9C42F000810B50446D8
:1018B0000021FF20FEF7F2FE00217C20FEF7EEFE65
:1018C00004217D20FEF7EAFE09217C20FEF7E6FEDA
:1018D00021467D20FEF7E2FE0021BDE810407D207C
:1018E000FEF7DCBE70B5054600F0D3F8C820FFF760
:1018F0007DF85B4E002400BF06EB4400417816F8EB
:101900001400FEF7CBFE0120FFF770F8641CB52C25
:10191000F2D3534E0024083E06EB4400417816F8FB
:101920001400FEF7BBFE0120FFF760F8641C042CD6
:10193000F2D36420FFF75AF84A4E002406EB440025
:10194000417816F81400FEF7A9FE641C0E2CF5D39E
:10195000444E8236092D75D2DFE805F07405132157
:101960002F3B495765003F4D00241C3505EB4400D3
:10197000417815F81400FEF791FE641C112CF5D384
:1019800070BD384D00243E3505EB4400417815F814
:101990001400FEF783FE641C112CF5D370BD314D8D
:1019A0000024603505EB4400417815F81400FEF77B
:1019B00075FE641C112CF5D370BD002406EB4400A9
:1019C000417816F81400FEF769FE641C122CF5D35A
:1019D00070BD244D0024A63505EB4400417815F870
:1019E0001400FEF75BFE641C112CF5D370BD1D4D79
:1019F0000024C83505EB4400417815F81400FEF7C3
:101A00004DFE641C112CF5D370BD164D0024EA3533
:101A100005EB4400417815F81400FEF73FFE641C06
:101A2000112CF5D370BD104D002400BF05EB440010
:101A3000417815F81400FEF731FE641C112CF5D323
:101A400070BDFFE75FF0000406EB4400417816F834
:101A50001400FEF723FE641C122CF5D3F0E70000FF
:101A60002C2D0008962E0008A22F000810B5044661
:101A700000F00CF9FFF7A2FEFEF79AFC2046FEF7F5
:101A80003DFC00F006F8BDE8104040F6FF70FEF7A0
:101A9000ADBF10B50121FF20FEF700FE8021BDE89B
:101AA00010401220FEF7FABD70470000044A0029DA
:101AB000116801D0014300E08143116070470000CC
:101AC00030380240044A0029116801D0014300E087
:101AD000814311607047000034380240044A0029F5
:101AE000116801D0014300E081431160704700009C
:101AF00038380240044A0029116801D0014300E04F
:101B0000814311607047000040380240044A0029B8
:101B1000116801D0014300E081431160704700006B
:101B200020380240044A0029116801D0014300E036
:101B30008143116070470000443802400149C86485
:101B4000704700000000474270B5204A1168204CE1
:101B500011F00C0104D01F4E042903D0082903D032
:101B600004601BE0066019E01849091F0B68C3F305
:101B700080550B6803F03F0315B1B6FBF3F301E0AA
:101B8000B4FBF3F30C680968C4F388146343C1F32E
:101B90000141491C4900B3FBF1F1016011680F23B9
:101BA00003EA11110C4B5C5C0168E1404160146870
:101BB000072505EA94241C5D21FA04F48460126868
:101BC00005EA52329A5CD140C16070BD08380240CB
:101BD0000024F40040787D0114000020024600201B
:101BE000510901290BD002290CD00849096802F0DB
:101BF0001F02012393400B4200D00120704703498C
:101C00007439F3E70149091FF0E700007438024016
:101C1000034A116821F4403101431160704700000C
:101C20008C380240014908677047000000004742B5
:101C3000800140EA0160024940EA02700860704792
:101C4000883802404FF4C631092819D2DFE800F085
:101C50001805080B180E101316004FF49640704725
:101C60004FF4C64070474FF49630704705487047B0
:101C70004FF4163070474FF4962070470248704773
:101C80000846704780E40100005307000148FFF751
:101C9000AFB800000058004010B50446217811B9D3
:101CA0006078002804D06078A41CFEF7F7FCF5E704
:101CB00010BD00001CB50121FE20FFF7F7FE022039
:101CC0008DF804008DF8050000208DF80600744C96
:101CD0008DF807000C2205212046FEF7A7FF0C22F5
:101CE00006212046FEF7A2FF0C2207212046FEF720
:101CF0009DFFE020009069462046FEF746FF694CB4
:101D00000C2200212046FEF791FF0C2201212046E3
:101D1000FEF78CFF0C2208212046FEF787FF0C22DD
:101D200009212046FEF782FF0C220A212046FEF7F9
:101D30007DFF0C220E212046FEF778FF0C220F219A
:101D40002046FEF773FF4CF2037000906946204670
:101D5000FEF71BFF544C0C2200212046FEF766FFC5
:101D60000C2201212046FEF761FF0C2207212046AC
:101D7000FEF75CFF0C2208212046FEF757FF0C22DD
:101D800009212046FEF752FF0C220A212046FEF7C9
:101D90004DFF0C220B212046FEF748FF0C22114676
:101DA0002046FEF743FF0C220D212046FEF73EFFA2
:101DB0000C220E212046FEF739FF0C220F2120466F
:101DC000FEF734FF4FF68370009069462046FEF719
:101DD000DCFE364C0C2200212046FEF727FF0C22A9
:101DE00001212046FEF722FF0C2202212046FEF7A9
:101DF0001DFF0C2203212046FEF718FF0C220421B0
:101E00002046FEF713FF0C2205212046FEF70EFFA9
:101E10000C220B212046FEF709FF0C22114620461A
:101E2000FEF704FF0C220D212046FEF7FFFE0C22D8
:101E30000E212046FEF7FAFE0C220F212046FEF767
:101E4000F5FE4FF63F00009069462046FEF79DFEE6
:101E5000174C0C2200212046FEF7E8FE0C2201213F
:101E60002046FEF7E3FE0C2204212046FEF7DEFEAC
:101E70000C2205212046FEF7D9FE0C22082120461F
:101E8000FEF7D4FE0C220F212046FEF7CFFE48F2CB
:101E90003310009069462046FEF777FE1CBD000017
:101EA000001C0240000C02400010024000140240DE
:101EB0000018024000B593B0FFF7FCFE0121084670
:101EC000FFF70CFE0421022007220D91CDE90B0241
:101ED000CDE90E2010901190012000900020CDE956
:101EE000010110210391402104914FF4C071CDE90B
:101EF00005104FF40061CDE90710880009900BA888
:101F00000A906846FEF7A8FD00F002F813B000BD85
:101F1000F0B585B0012608240025CDE90064CDE99F
:101F2000026520210120FEF76AFD0028F9D16846EC
:101F3000FEF780FD0A2022480490401E0490FCD148
:101F4000022003958DE8510020210120FEF757FD66
:101F50000028F9D16846FEF76DFD0320042703959C
:101F60008DE8910020210120FEF749FD0028F9D1DC
:101F70006846FEF75FFD20210120FEF740FD0028A6
:101F8000F9D16846FEF756FD40F23120CDE90260F6
:101F9000CDE9007420210120FEF731FD0028F9D1A0
:101FA0006846FEF747FD40F26A50FEF7E5FD202146
:101FB0000120FEF724FD0028F9D105B0F0BD000096
:101FC00040420F002DE9FC41884604462B492B482E
:101FD000091D50F8240051F8241008430121FFF78F
:101FE00065FD2CB925480121001F0068FFF79AFD07
:101FF0002248234E083810F81420001F30F814101F
:1020000056F82400FEF712FE1C48371D801F10F8FA
:102010001420001F30F8141057F82400FEF706FEB5
:1020200000208DF8060001208DF8070013480225D6
:1020300010388DF8045030F8140000908DF80550D9
:1020400056F824006946FEF7A0FD0C488DF80450B0
:102050000E38694630F81400009057F82400FEF757
:1020600094FD351F414655F8240000F0D9F855F885
:102070002400012100F0ACF8BDE8FC81D82C000858
:102080003C000020704700001CB500202E49019044
:1020900000900A6842F480320A604FF4A0430A6854
:1020A00002F400320092019A521C0192009A12B975
:1020B000019A9A42F3D10A68920342D50120009016
:1020C00021484030026842F0805202601F48026896
:1020D00042F4404202601C4A0832136813601368DD
:1020E00043F400431360136843F4A0531360141FB8
:1020F000174B23600B6843F080730B600B689B01E8
:10210000FCD5016841F4803101604168C903FCD508
:10211000016841F40031016041688903FCD50D4933
:1021200040F205700860106820F00300106010682D
:1021300040F0020010601068C0F381000228FAD15C
:102140001CBD00901CBD0000003802400070004023
:10215000085A4004003C024000F02EB8124810B566
:10216000016841F4700101601048016841F001010B
:1021700001600E4A00210832116002680C4B1A40BF
:102180000260031D0B4A1A60026822F4802202607A
:1021900006480C300160FFF777FF03494FF00060FD
:1021A0008039086010BD000088ED00E00038024072
:1021B000FFFFF6FE103000240448C16811B1C16869
:1021C000491EC160C188491CC1807047240000209D
:1021D0000029818902D041F4005101E021F400512D
:1021E000818170471FB54FF4E13000900020ADF8B9
:1021F0000400ADF80600ADF808004FF44070ADF8EB
:102200000C000C20ADF80A0069460020FFF7DAFE4A
:102210001FBD0246002012880A4200D001207047EC
:102220007FB50446008A0D4620F44051E8880843F3
:102230002082A08941F20C618843A9882A89114330
:102240006A8902431143A181A08A20F44071A889C0
:102250000843A0826846FFF777FC1A48844202D000
:102260001948844201D1039800E00298A189090429
:1022700000EBC00101EB0010296801D5490000E026
:102280008900B0FBF1F26420B2FBF0F109010B0907
:102290006FF018056B4302EB8302A3891D044FF016
:1022A000320306D503EBC202B2FBF0F000F00700E8
:1022B00005E003EB0212B2FBF0F000F00F00084360
:1022C00020817FBD0010014000140140C1F30801CE
:1022D00081807047FEE700000FB4054B10B503A9DD
:1022E000044A029800F02CF810BC5DF814FB0000C2
:1022F000AD270008800000200FB4084B10B504A9DA
:1023000002AA039800F01CF8044602A9002000F07D
:1023100048FA204610BC5DF814FB0000A327000813
:1023200002E008C8121F08C1002AFAD1704770479E
:10233000002001E001C1121F002AFBD170470000FC
:102340002DE9FF4F8DB00F460546002606E02528F3
:102350000BD0DDE90F1290476D1C761C2878002801
:10236000F5D111B03046BDE8F08F0024A246A14659
:102370000122EC4900E0044315F8013F203B02FA3A
:1023800003F00842F7D128782A2810D06FF02F02E6
:102390002878A0F13001092914D80AEB8A0102EB50
:1023A000410144F0020400EB010A6D1CF0E701CF8B
:1023B0005FEA000A03D544F40054CAF1000A44F06D
:1023C00002046D1C28782E2817D115F8010F44F04F
:1023D00004042A280ED06FF02F022878A0F13001D3
:1023E00009290AD809EB890102EB410100EB010937
:1023F0006D1CF2E757F8049B6D1C28786C280FD0F1
:1024000006DC4C2817D068280DD06A2814D104E0C7
:10241000742810D07A280FD10DE044F400140AE09B
:1024200044F4801401E044F440146978814202D1FC
:1024300004F580146D1C6D1C2A786E2A1FD00CDCEC
:10244000632A31D004DC002A8BD0582A11D1A3E0B2
:10245000642A68D0692A0CD165E0732A2ED004DC86
:102460006F2A73D0702A04D19BE0752A6FD0782A26
:102470006ED01046DDE90F129047761C50E1C4F390
:102480000250022806D0032809D0042801CF09D021
:10249000066045E101CFF117C0E9006140E101CFDD
:1024A00006803DE106703BE117F8040B8DF8000053
:1024B00000208DF80100EB46012003E057F804BB33
:1024C0004FF0FF3061074FF0000102D40DE008F13A
:1024D0000101884649450FDA8045F8DB1BF80810F2
:1024E0000029F4D108E008F1010188468142FADBB5
:1024F0001BF808100029F6D1DDE90F23AAEB08002C
:102500008146214600F036F9304400EB080604E02D
:10251000DDE90F121BF8010B9047B8F10108F7D263
:1025200021464846F7E00A21C4F302534FF0000B5E
:102530000891022B04D001CFC117032B09D00AE068
:10254000FF1D27F00707F7E8020108E032E01FE06F
:1025500020E000B2C117042B01D140B2C117031E05
:1025600071F1000307DA4FF0000CD0EB0C006CEBBC
:1025700001012D2302E0230504D52B238DF82430FF
:10258000012303E0E30701D02023F7E7984658E052
:102590000A2110E010210EE010204FF0000B0890EF
:1025A0000CE010214FF0000B44F004044FF0080938
:1025B000089103E008214FF0000B0891C4F3025387
:1025C000022B04D001CF0021032B06D006E0FF1D13
:1025D00027F00707F7E8020103E080B2042B00D1DF
:1025E000C0B24FF0000823072BD5702A07D0DDF8C2
:1025F00020C08CF0100C5CEA0B0C05D00EE04023E0
:102600008DF82430012308E050EA010306D030237E
:102610008DF824308DF8252002239846DDF820C05F
:102620008CF0080C5CEA0B0C0BD150EA010301D1D1
:10263000630706D530238DF824304FF00108A9F147
:102640000109582A04D038A20B9208AA0A920BE07A
:102650003AA2F9E75B46089AFDF7C4FD0B9B9B5C29
:102660000A9A521E0A92137050EA0102F2D10A9895
:10267000ADEB000000F1200B600702D524F480349C
:1026800001E04FF00109D94502DDA9EB0B0000E0A4
:10269000002000EB0B0141440890AAEB010AE00383
:1026A00006D4DDE90F232146504600F063F80644C6
:1026B0004FF0000908E009A911F80900DDE90F123F
:1026C000904709F10109761CC145F4DBE0030CD504
:1026D000DDE90F232146504600F04CF8064404E0A3
:1026E000DDE90F1230209047761C0899481E0890AB
:1026F0000029F5DC08E00A980A990078491C0A913B
:10270000DDE90F129047761CBBF10001ABF1010B24
:10271000F1DC21465046DDE90F2300F019F80644AC
:102720006D1C1BE609280100303132333435363751
:10273000383961626364656600000000303132330D
:1027400034353637383941424344454600000000AD
:102750002DE9F041044600251E461746880404D49E
:1027600005E039462020B0476D1C641EF9D5284687
:10277000BDE8F0812DE9F041044600251E46904653
:10278000C80301D5302700E02027880404D505E0E0
:1027900041463846B0476D1C641EF9D52846BDE851
:1027A000F0810A68531C0B601070704770B5074DBC
:1027B0000446C1B22846FFF789FD40212846FFF7AD
:1027C00028FD0028F9D0204670BD0000001001400F
:1027D00092B0C6484FF47A7801240168B1FBF8F052
:1027E000401EB0F1807F7DD24FF0E0214861C04AA9
:1027F000F02082F8140D00258D6107270F61FFF787
:10280000F1FC0DA8FFF7A0F95A21BA48FFF75EFDC9
:102810001921B9A0FFF760FDBA4E0D98B0FBF6F193
:10282000B9A0FFF759FD0E98B0FBF6F1BAA0FFF77B
:1028300053FD0F98B0FBF6F1BAA0FFF74DFD1098CD
:10284000B0FBF6F1BAA0FFF747FDBCA0FFF744FDCF
:1028500001210846FFF74EF98DF830508DF83250BF
:102860000226DFF8ECB28DF831608DF833400BA909
:1028700058460B94FEF789F901212020FFF716F93D
:102880008DF831608DF830408DF832508DF833502E
:10289000FEF70CFEFEF74AFE4FF4F0794B464FF47C
:1028A00048724FF05041ABA0FFF716FD4B464FF476
:1028B0002072AD49ADA0FFF70FFD0120FEF7B2FE7B
:1028C0000020FEF799FE0020FEF764FD4FF4FC693E
:1028D0004846FEF7A1FE4FF0070AA948FEF786FE1C
:1028E000484600E01AE0FEF797FE0020FEF778FE6B
:1028F000FEF7D6FDA3A10020FEF76AFD3846FFF7DC
:10290000A1F9C008FFF7B2F80120FEF765F809A8A1
:10291000FDF782FE4FF6FF7708B113E0FEE79DF862
:1029200024107F290BD19DF82520A22A07D19DF8DC
:102930002600262803D19DF82730422B47D094A0AB
:10294000FFF7CAFC01210846FFF7D4F88DF8305094
:102950008DF832508DF831608DF833400BA9584610
:102960000B94FEF712F901218F48FDF70DFF0120AE
:10297000FDF7B6FC0120FDF799FC8C4C4646E0883B
:102980002189401AB0421DDDE0882081628888A13B
:1029900001A8FFF7B1FCFEF783FDC08801A900EB99
:1029A000400080B2FEF714FDA28883A101A8FFF7C2
:1029B000A3FCFEF775FDC08801A907EA8000FEF7B9
:1029C00007FDA58020780028D9D02570D7E7009092
:1029D0007BA0FFF781FC9DF825309DF8242080A185
:1029E00001A8FFF789FCFEF75BFDC08801A9FEF78F
:1029F000EFFC5046FEF776FF2020FEF757FF02203F
:102A0000FEF73CFF0A20FDF7E7FF0021FF20FDF75E
:102A100045FE08A95020FDF729FE9DF8201074A05E
:102A2000FFF75AFC0AA95520FDF720FE9DF8281053
:102A300075A0FFF751FC08A95120FDF717FE9DF87E
:102A400028009DF8201000F0080041EA40108200A4
:102A500073A0FFF741FC08A95220FDF707FE9DF87F
:102A600028009DF8201000F0800041EA400082001C
:102A700072A0FFF731FC08A9C020FDF7F7FD9DF813
:102A8000201075A0CA00FFF727FC08A9C120FDF798
:102A9000EDFD9DF8201077A0CA00FFF71DFC08A9E6
:102AA0005A20FDF7E3FD9DF8201079A08A00FFF77A
:102AB00013FC0AA95B20FDF7D9FD9DF828107AA028
:102AC0008A00FFF709FC9DF828007DA183009DF88E
:102AD0002000820001A8FFF70FFCFEF7E1FCC08890
:102AE00001A907EA4000FEF773FC2BE70000002075
:102AF0000FE000E0001001400D0A4853453A2564FC
:102B00004D0D0A0040420F000D0A535953434C4BE0
:102B10003A25644D0D0A000048434C4B3A25644D5C
:102B20000D0A000050434C4B313A25644D0D0A000C
:102B300050434C4B323A25644D0D0A000A0D204497
:102B4000434D49204578616D706C650A0D0A0D0092
:102B5000000002404C41594552303A257820282542
:102B600064782564290D0A0000A60ED04C41594511
:102B700052313A257820282564782564290D0A00E9
:102B8000780000204F56323634302074657374005C
:102B90004F563236343020494420697320457272D2
:102BA0006F72210D0A0000002864024024000020FA
:102BB0006C6E3A25642000006670733A256420002C
:102BC0004F56323634302049443A30782578203018
:102BD000782578203078257820307825780D0A00FF
:102BE00049443A3078253032782530327820000058
:102BF00044434D49204453505F4354524C3A25308E
:102C000032780D0A0000000044434D4920445350DF
:102C10005F564859583A253032780D0A00000000B6
:102C200044434D49204453505F4853495A453A253F
:102C30003032782025640D0A0000000044434D49DD
:102C4000204453505F5653495A453A253032782034
:102C500025640D0A0000000044434D4920445350B0
:102C60005F4853495A45383A253032782025640D5B
:102C70000A00000044434D49204453505F565349D5
:102C80005A45383A253032782025640D0A00000074
:102C900044434D49204453505F5A4D4F573A2530D5
:102CA00032782025640D0A0044434D492044535096
:102CB0005F5A4D4F483A253032782025640D0A007E
:102CC00025647825642000000002000409000A0041
:102CD00007000700100000000100000001000000D4
:102CE0000100002000200100002000200000020060
:102CF000020000000D000D00060028002800400022
:102D000080000004001000004000000040000000AF
:102D1000400000004000000001000000040000002E
:102D200004000000FF000500DA09C20CFF002CFFC0
:102D30002EDFFF013C3211010902042813E514487B
:102D40002C0C33783A333BFB3E004311161039927A
:102D500035DA221A37C3230034C0361A068807C072
:102D60000D870E414C0048005B0042034A812199C7
:102D70002440253826825C00630046220C3A5D55CB
:102D80005E7D5F7D6055617062807C0520802830AB
:102D90006C006D806E007002719473C11242171145
:102DA000184319001A4B320937C04FCA50A86D009A
:102DB0003D38463F4FCAFF00E57FF9C04124E0148B
:102DC00076FF33A0422043184C0087D0883FD703BA
:102DD000D910D382C808C9807C007D007C037D485F
:102DE0007D487C087D207D107D0E9000910E911A0B
:102DF0009131915A91699175917E9188918F9196B7
:102E000091A391AF91C491D791E89120920093063C
:102E100093E3930593059300930493009300930029
:102E200093009300930093009600970897199702D8
:102E3000970C972497309728972697029798978012
:102E400097009700C3EDA400A800C511C651BF802C
:102E5000C710B666B8A5B764B97CB3AFB497B5FF71
:102E6000B0C5B194B20FC45CA600A720A7D8A71B19
:102E7000A731A700A718A720A7D8A719A731A7008F
:102E8000A718A720A7D8A719A731A700A7187F00C0
:102E9000E51FE177DD7FFF0112001711187532364B
:102EA00019011A97030F37404FBB509C34A00602FC
:102EB0000DB7FF00E004C0C8C196863D5092519006
:102EC000522C53005400558857005A285B1E5C0052
:102ED000D310E000FF00E004C0C8C196863D5092C8
:102EE0005190522C53005400558857005A2C5B24A3
:102EF0005C00D310E000FF00E004C0C8C196863D2E
:102F000050925190522C53005400558857005A50FB
:102F10005B325C00D310E000FF00E004C0C8C19643
:102F2000863D50925190522C5300540055885700C2
:102F30005A585B485C00E000D308E000FF00E00462
:102F4000C0C8C196863D50895190522C5300540000
:102F5000558857005A665B4C5C00D308E000FF00C0
:102F6000E004C0C8C196863D50895190522C530050
:102F70005400558857005A785B505C00D308E00035
:102F8000FF00E004C0C8C196863D50805190522C8D
:102F900053005400558857005AA05B785C00D30456
:102FA000E000FF00E004C0C8C196863D5089519002
:102FB000522C53005400558857005AC85B965C0049
:102FC000D302E000FF01FF2420FF2518FF2660FF49
:102FD000000000FF01FF2434FF251CFF2670FF00C6
:102FE0000000FF01FF243EFF2538FF2681FF00007F
:102FF00000FF01FF2448FF2540FF2681FF0000005D
:10300000FF01FF2458FF2550FF2692FF000000001B
:1030100000000000000000000000000000000000B0
:1030200000000000000000000000000000000000A0
:103030000000000000000000000000000000000090
:1030400000008001800180018001800180018001F9
:10305000800180018001800180018001000000006A
:10306000800180010000000000000000000000005E
:1030700000000000CC00CC00CC00CC00CC00CC0088
:103080000000000000000000000000000000000040
:103090000000000000000000000000000000000030
:1030A000000000000000000000000000600C600C48
:1030B000600C30063006FE1FFE1F3006380718036E
:1030C000FE1FFE1F180318038C018C018C010000E9
:1030D00000008000E003F80F9C0E8C1C8C188C0004
:1030E0009800F801E007800E801C8C188C189C1842
:1030F000B80CF00FE003800080000000000000002A
:103100000000000000000E181B0C110C1106110627
:10311000110311039B018E01C038C06C60446044F0
:10312000304430441844186C0C3800000000000093
:103130000000E001F0033807180618063003F0011C
:10314000F000F8009C310E33061E061C061C063FDC
:10315000FC73F021000000000000000000000000EF
:10316000000000000C000C000C000C000C000C0017
:10317000000000000000000000000000000000004F
:10318000000000000000000000000000000000003F
:103190000000000200038001C000C0006000600069
:1031A000300030003000300030003000300030009F
:1031B00060006000C000C000800100030002000049
:1031C000000020006000C0008001800100030003B7
:1031D00000060006000600060006000600060006BF
:1031E0000003000380018001C00060002000000097
:1031F000000000000000000000000000C000C0004F
:10320000D806F807E001300338070000000000008E
:1032100000000000000000000000000000000000AE
:10322000000000000000000000000000800180019C
:10323000800180018001FC3FFC3F80018001800112
:10324000800180010000000000000000000000007C
:10325000000000000000000000000000000000006E
:10326000000000000000000000000000000000005E
:1032700000008001800100010001800000000000CA
:10328000000000000000000000000000000000003E
:103290000000000000000000E007E0070000000060
:1032A000000000000000000000000000000000001E
:1032B000000000000000000000000000000000000E
:1032C00000000000000000000000000000000000FE
:1032D0000000C000C000000000000000000000006E
:1032E0000000000C000C00060006000600030003AE
:1032F00000038003800180018001C000C000C00085
:1033000060006000000000000000000000000000FD
:103310000000E003F007380E180C0C180C180C18FD
:103320000C180C180C180C180C180C18180C380E5B
:10333000F007E003000000000000000000000000B3
:10334000000000018001C001F001980188018001A6
:103350008001800180018001800180018001800165
:10336000800180010000000000000000000000005B
:103370000000E003F80F180C0C180C1800180018C7
:10338000000C000600038001C0006000300018003F
:10339000FC1FFC1F000000000000000000000000F7
:1033A0000000E001F807180E0C0C0C0C000C0006D5
:1033B000C003C007000C001800180C180C18180CDB
:1033C000F807E0030000000000000000000000001B
:1033D0000000000C000E000F000F800DC00C600CF0
:1033E000600C300C180C0C0CFC3FFC3F000C000C6B
:1033F000000C000C000000000000000000000000B5
:103400000000F80FF80F180018000C00EC03FC0780
:103410001C0E001C0018001800180C181C0C180EAC
:10342000F807E003000000000000000000000000BA
:103430000000C007F00F381C181818000C00CC034F
:10344000EC0F3C0E1C1C0C180C180C18181C380E19
:10345000F007E00300000000000000000000000092
:103460000000FC1FFC1F000C000600060003800388
:103470008001C001C000E00060006000700030000A
:1034800030003000000000000000000000000000DC
:103490000000E003F007380E180C180C180C380662
:1034A000F007F007180C0C180C180C180C18380C36
:1034B000F80FE00300000000000000000000000022
:1034C0000000E003F007380E1C0C0C180C180C1848
:1034D0001C1C381EF81BE0190018000C000C1C0EF8
:1034E000F807F001000000000000000000000000EC
:1034F00000000000000000000000000080018001CA
:1035000000000000000000000000000000000000BB
:1035100080018001000000000000000000000000A9
:103520000000000000000000000000008001800199
:10353000000000000000000000000000000000008B
:1035400080018001000100018000000000000000F7
:10355000000000000000000000000000000000006B
:103560000010001C800FE003F8001800F800E003D2
:10357000800F001C00100000000000000000000090
:10358000000000000000000000000000000000003B
:10359000F81F000000000000F81F000000000000FD
:1035A000000000000000000000000000000000001B
:1035B000000000000000000000000000000000000B
:1035C00008003800F001C007001F0018001FC007E6
:1035D000F0013800080000000000000000000000BA
:1035E0000000E003F80F180C0C180C180018000C61
:1035F000000600038001C000C000C0000000000001
:10360000C000C0000000000000000000000000003A
:1036100000000000E00718180420C229224A1144C3
:1036200009440944094409221113E20C0240042010
:103630001818E00700000000000000000000000073
:10364000000080038003C006C006C006600C600C4A
:10365000301830183018F83FF83F1C700C600C60C0
:1036600006C006C0000000000000000000000000CE
:103670000000FC03FC0F0C0C0C180C180C180C0CA4
:10368000FC07FC0F0C180C300C300C300C300C18F4
:10369000FC1FFC070000000000000000000000000C
:1036A0000000C007F01F38381C300C7006600600A0
:1036B0000600060006000600060006600C701C30BE
:1036C000F01FE00700000000000000000000000004
:1036D0000000FE03FE0F060E061806180630063020
:1036E0000630063006300630063006180618060E7C
:1036F000FE0FFE03000000000000000000000000BC
:103700000000FC3FFC3F0C000C000C000C000C0007
:10371000FC1FFC1F0C000C000C000C000C000C002B
:10372000FC3FFC3F00000000000000000000000023
:103730000000F83FF83F18001800180018001800A3
:10374000F81FF81F180018001800180018001800BB
:103750001800180000000000000000000000000039
:103760000000E00FF83F3C780E6006E007C0030061
:10377000030003FE03FE03C007C006C00EC03CF0FA
:10378000F83FE00F00000000000000000000000013
:1037900000000C300C300C300C300C300C300C3085
:1037A000FC3FFC3F0C300C300C300C300C300C303B
:1037B0000C300C3000000000000000000000000091
:1037C0000000800180018001800180018001800172
:1037D00080018001800180018001800180018001E1
:1037E00080018001000000000000000000000000D7
:1037F000000000060006000600060006000600069F
:10380000000600060006000600061806180638071F
:10381000F003E001000000000000000000000000D4
:10382000000006300618060C060606038601C600D0
:1038300066007600DE008E0106030606060C0618FA
:1038400006300660000000000000000000000000DC
:1038500000001800180018001800180018001800C0
:103860001800180018001800180018001800180098
:10387000F81FF81F0000000000000000000000001A
:1038800000000EE01EF01EF01EF036D836D836D8F6
:1038900036D866CC66CC66CCC6C6C6C6C6C6C6C654
:1038A00086C386C300000000000000000000000086
:1038B00000000C301C303C303C306C306C30CC3074
:1038C000CC308C310C330C330C360C360C3C0C3CAD
:1038D0000C380C3000000000000000000000000068
:1038E0000000E007F81F1C380E70066003C003C01C
:1038F00003C003C003C003C003C006600E701C38C1
:10390000F81FE007000000000000000000000000B9
:103910000000FC0FFC1F0C380C300C300C300C304D
:103920000C18FC1FFC070C000C000C000C000C0019
:103930000C000C000000000000000000000000006F
:103940000000E007F81F1C380E70066003E003C09B
:1039500003C003C003C003C007E006630E3F1C3C66
:10396000F83FE0F700C00000000000000000000089
:103970000000FE0FFE1F06380630063006300638FF
:10398000FE1FFE0706030606060C0618061806307C
:10399000063006600000000000000000000000008B
:1039A0000000E003F80F1C0C0C180C180C001C0095
:1039B000F803E00F001E0038063006300E301C1CE5
:1039C000F80FE00700000000000000000000000009
:1039D0000000FE7FFE7F8001800180018001800168
:1039E00080018001800180018001800180018001CF
:1039F00080018001000000000000000000000000C5
:103A000000000C300C300C300C300C300C300C3012
:103A10000C300C300C300C300C300C300C301818D2
:103A2000F81FE00700000000000000000000000098
:103A3000000003600630063006300C180C180C1815
:103A4000180C180C380E300630067007600360033F
:103A5000C001C001000000000000000000000000E4
:103A600000000360C361C361C361663366336633BC
:103A70006633663366336C1B6C1B6C1B2C1A3C1E46
:103A8000380E380E000000000000000000000000AA
:103A900000000FE00C7018303018700C600EC0077A
:103AA00080038003C003E006700C301C18180C3033
:103AB0000E6007E0000000000000000000000000B1
:103AC000000003C006600C301C383818300C60064B
:103AD000E007C00380018001800180018001800136
:103AE00080018001000000000000000000000000D4
:103AF0000000FC7FFC7F006000300018000C000616
:103B000000038001C0006000300018000C000600B7
:103B1000FE7FFE7F000000000000000000000000AB
:103B20000000E003E00360006000600060006000EF
:103B30006000600060006000600060006000600085
:103B400060006000600060006000E003E0030000CF
:103B5000000030003000600060006000C000C00065
:103B6000C000C00180018001800100030003000348
:103B70000006000600000000000000000000000039
:103B80000000E003E0030003000300030003000360
:103B9000000300030003000300030003000300030D
:103BA00000030003000300030003E003E003000040
:103BB00000000000C001C001600360036003300624
:103BC0003006180C180C0000000000000000000077
:103BD00000000000000000000000000000000000E5
:103BE00000000000000000000000000000000000D5
:103BF00000000000000000000000000000000000C5
:103C00000000FFFFFFFF00000000000000000000B8
:103C100000000C000C000C000C000C000C0000005C
:103C20000000000000000000000000000000000094
:103C30000000000000000000000000000000000084
:103C4000000000000000000000000000F003F80782
:103C50001C0C0C0C000FF00FF80C0C0C0C0C1C0FB7
:103C6000F80FF01800000000000000000000000045
:103C7000000018001800180018001800D803F80FEA
:103C8000380C181818181818181818181818380C8C
:103C9000F80FD80300000000000000000000000042
:103CA000000000000000000000000000C003F0075A
:103CB000300E180C1800180018001800180C300EE0
:103CC000F007C0030000000000000000000000003A
:103CD000000000180018001800180018C01BF01F82
:103CE000301C181818181818181818181818301C1C
:103CF000F01FC01B000000000000000000000000DA
:103D0000000000000000000000000000C003F00FF1
:103D1000300C1818F81FF81F180018003818301C3D
:103D2000F00FC007000000000000000000000000CD
:103D30000000800FC00FC000C000C000F007F007F7
:103D4000C000C000C000C000C000C000C000C00073
:103D5000C000C000000000000000000000000000E3
:103D6000000000000000000000000000E00DF80F5F
:103D7000180E0C0C0C0C0C0C0C0C0C0C0C0C180E67
:103D8000F80FE00D000C0C0C1C06F807F001000009
:103D9000000018001800180018001800D807F80FC5
:103DA000381C18181818181818181818181818186F
:103DB00018181818000000000000000000000000A3
:103DC0000000C000C000000000000000C000C000F3
:103DD000C000C000C000C000C000C000C000C000E3
:103DE000C000C00000000000000000000000000053
:103DF0000000C000C000000000000000C000C000C3
:103E0000C000C000C000C000C000C000C000C000B2
:103E1000C000C000C000C000C000F8007800000072
:103E200000000C000C000C000C000C000C0C0C062C
:103E30000C038C01CC006C00FC009C018C030C0377
:103E40000C060C0C00000000000000000000000048
:103E50000000C000C000C000C000C000C000C00022
:103E6000C000C000C000C000C000C000C000C00052
:103E7000C000C000000000000000000000000000C2
:103E80000000000000000000000000007C3CFF7EFD
:103E9000C7E383C183C183C183C183C183C183C19C
:103EA00083C183C10000000000000000000000008A
:103EB0000000000000000000000000009807F80F5C
:103EC000381C18181818181818181818181818184E
:103ED0001818181800000000000000000000000082
:103EE000000000000000000000000000C003F00F10
:103EF000300C181818181818181818181818300C2A
:103F0000F00FC003000000000000000000000000EF
:103F1000000000000000000000000000D803F80FBF
:103F2000380C181818181818181818181818380CE9
:103F3000F80FD80318001800180018001800000027
:103F4000000000000000000000000000C01BF01F87
:103F5000301C181818181818181818181818301CA9
:103F6000F01FC01B001800180018001800180000EF
:103F7000000000000000000000000000B007F00397
:103F80007000300030003000300030003000300071
:103F900030003000000000000000000000000000C1
:103FA000000000000000000000000000E003F0033B
:103FB000380E180C3800F003C007000C180C380E2F
:103FC000F007E00300000000000000000000000017
:103FD000000000008000C000C000C000F007F00733
:103FE000C000C000C000C000C000C000C000C000D1
:103FF000C007800700000000000000000000000073
:104000000000000000000000000000001818181850
:104010001818181818181818181818181818381CFC
:10402000F01FE01900000000000000000000000088
:104030000000000000000000000000000C18180C38
:10404000180C180C3006300630066003600360035D
:10405000C001C001000000000000000000000000DE
:10406000000000000000000000000000C141C1414C
:10407000C3616363636363633636363636361C1C4E
:104080001C1C1C1C000000000000000000000000C0
:104090000000000000000000000000001C38381C78
:1040A000300C600660036003600360036006300C40
:1040B000381C1C3800000000000000000000000058
:1040C0000000000000000000000000001830301860
:1040D00030187018600C600CE00CC006C00680033D
:1040E0008003800380018001C001F00070000000A7
:1040F000000000000000000000000000FC1FFC1F8A
:10410000000C000600038001C000600030001800B1
:10411000FC1FFC1F00000000000000000000000069
:10412000000000038001C000C000C000C000C0004B
:10413000C00060006000300060004000C000C000AF
:10414000C000C000C000C0008001000300000000EB
:1041500000008001800180018001800180018001D8
:104160008001800180018001800180018001800147
:1041700080018001800180018001800180010000B8
:1041800000006000C000C00180018001800180014A
:10419000800100030003000600030001800180018C
:1041A0008001800180018001C000600000000000EB
:1041B00000000000000000000000000000000000FF
:1041C000F010F81F080F00000000000000000000C1
:1041D00000000000000000000000000000000000DF
:1041E00000000000000000000000000000000000CF
:1041F00000000000000000000000000000001000AF
:10420000100010001000100010000000100000004E
:104210000000000000002800280028000000000026
:10422000000000000000000000000000000014007A
:1042300014003E00140028007C0028002800000024
:104240000000000010003800540050003800140036
:10425000140054003800100000000000000044006A
:10426000A800A800500014001A002A002400000032
:104270000000000000002000500050002000E80076
:10428000980098006000000000000000000080001E
:10429000800080000000000000000000000000001E
:1042A00000000000000040008000800080008000CE
:1042B000800080008000800000000000000080007E
:1042C00040004000400040004000400040004000EE
:1042D0000000000000004000E0004000A0000000DE
:1042E00000000000000000000000000000000000CE
:1042F000000020002000F800200020000000000046
:1043000000000000000000000000000000000000AD
:10431000000000004000400000000000000000001D
:104320000000000000000000C000000000000000CD
:10433000000000000000000000000000000000007D
:10434000000000004000000000000000000020000D
:10435000200020004000400080008000800000001D
:1043600000000000000060009000900090009000AD
:10437000900090006000000000000000000020009D
:104380006000A0002000200020002000200000008D
:1043900000000000000060009000100010002000ED
:1043A00040008000F00000000000000000006000FD
:1043B00090001000600010001000900060000000ED
:1043C000000000000000100030005000500090007D
:1043D000F800100010000000000000000000700055
:1043E00040008000E000100010009000600000001D
:1043F000000000000000600090008000A000D000DD
:104400009000900060000000000000000000F0003C
:10441000100020002000200040004000400000006C
:10442000000000000000600090009000600090001C
:10443000900090006000000000000000000060009C
:1044400090009000B000500010009000600000004C
:10445000000000000000000000004000000000001C
:10446000000000004000000000000000000000000C
:10447000000040000000000000000000400040007C
:10448000000000000000000000001000600080003C
:1044900060001000000000000000000000000000AC
:1044A00000000000F0000000F0000000000000002C
:1044B000000000000000000000008000600010000C
:1044C00060008000000000000000000000006000AC
:1044D000900010002000400040000000400000005C
:1044E0000000000000001C0022005B00A500A500E9
:1044F000A500A5009E004100000000000000200073
:1045000050005000500050007000880088000000EB
:10451000000000000000F00088008800F000880023
:1045200088008800F0000000000000000000380053
:1045300044008400800080008400440038000000B3
:10454000000000000000E000900088008800880063
:1045500088009000E0000000000000000000F8006B
:1045600080008000F800800080008000F8000000DB
:104570000000000000007800400040007000400093
:104580004000400040000000000000000000380033
:104590004400840080009C00840044003800000037
:1045A000000000000000880088008800F8008800F3
:1045B00088008800880000000000000000008000E3
:1045C000800080008000800080008000800000006B
:1045D000000000000000100010001000100010008B
:1045E00090009000600000000000000000008800C3
:1045F0009000A000E000A000900090008800000063
:10460000000000000000800080008000800080002A
:1046100080008000F0000000000000000000820028
:10462000C600C600AA00AA00AA00AA0092000000C4
:104630000000000000008400C400A400A400940056
:1046400094008C0084000000000000000000300096
:10465000480084008400840084004800300000008A
:10466000000000000000F000880088008800F000D2
:10467000800080008000000000000000000030008A
:104680004800840084008400840058003400040042
:104690000000000000007800440044007800500052
:1046A00048004400420000000000000000007000CC
:1046B00088008000700008008800880070000000FA
:1046C000000000000000F800200020002000200072
:1046D00020002000200000000000000000008400F6
:1046E00084008400840084008400480030000000BE
:1046F00000000000000088008800500050005000BA
:104700005000500020000000000000000000920057
:10471000AA00AA00AA00AA00AA00AA004400000059
:104720000000000000008400480048003000300015
:1047300048004800840000000000000000008800DD
:104740005000500020002000200020002000000029
:10475000000000000000F800080010002000200009
:1047600040008000F8000000000000000000C000D1
:104770008000800080008000800080008000800039
:104780000000000000008000800040004000400069
:104790004000200020000000000000000000C000D9
:1047A0004000400040004000400040004000400009
:1047B0000000000000004000A000A000A0000000D9
:1047C00000000000000000000000000000000000E9
:1047D0000000000000000000000000000000F800E1
:1047E0000000000000008000400000000000000009
:1047F00000000000000000000000000000000000B9
:104800000000E000100070009000900070000000B8
:1048100000000000000080008000A000D000900098
:104820009000D000A0000000000000000000000088
:104830000000600090008000800090006000000098
:10484000000000000000100010005000B0009000B8
:104850009000B000500000000000000000000000C8
:10486000000060009000F0008000900060000000F8
:10487000000000000000C0008000C0008000800038
:1048800080008000800000000000000000000000A8
:1048900000005000B00090009000B00050001000E8
:1048A00000000000000080008000A000D000900008
:1048B00090009000900000000000000000008000C8
:1048C00000008000800080008000800080000000E8
:1048D00000000000000080000000800080008000D8
:1048E0008000800080008000000000000000800048
:1048F00080009000A000C000A00090009000000088
:104900000000000000008000800080008000800027
:104910008000800080000000000000000000000017
:104920000000A600DA0092009200920092000000BF
:1049300000000000000000000000A000D000900077
:1049400090009000900000000000000000000000B7
:104950000000600090009000900090006000000057
:1049600000000000000000000000A000D000900047
:104970009000D000A00080000000000000000000B7
:1049800000005000B00090009000B00050001000F7
:1049900000000000000000000000A000C000800037
:1049A0008000800080000000000000000000000087
:1049B0000000E00090004000200090006000000037
:1049C00000000000000080008000C0008000800027
:1049D00080008000C0000000000000000000000017
:1049E00000009000900090009000B0005000000087
:1049F0000000000000000000000088008800500057
:104A000050005000200000000000000000000000E6
:104A100000009200AA00AA00AA00AA004400000018
:104A2000000000000000000000008800500020008E
:104A3000200050008800000000000000000000007E
:104A4000000088005000500050002000200020008E
:104A500000000000000000000000F0001000200036
:104A600040008000F0000000000000000000C000D6
:104A700080008000800000008000800080008000B6
:104A800000000000000080008000800080008000A6
:104A90008000800080008000000000000000C00056
:104AA0004000400040002000400040004000400026
:104AB000000000000000000000000000E800B0005E
:104AC00000000000000000000000000000000000E6
:104AD000E000A000A000A000A000A000E0000000F6
:104AE000004B000800000020840000002023000884
:104AF000844B0008840000200404000030230008D8
:104B00000095BA0A00000000000000000102030442
:104B10000607080900000000010203040102030463
:104B20000607080900000000000000000000000067
:104B300000000000000000000010014000000240E2
:104B40000000024000180240001802400018024015
:104B50000018024000000240000802400008024025
:104B60000000FFFF000000D0000000000000000077
:104B70001030000810001800E041000808000C0088
:044B80000000000031
:04000005080001AD41
:00000001FF
